{
    "_format": "hh-sol-artifact-1",
    "contractName": "Voting",
    "sourceName": "contracts/Voting.sol",
    "abi": [
        {
            "inputs": [
                {
                    "internalType": "address",
                    "name": "trustedForwarder",
                    "type": "address"
                }
            ],
            "stateMutability": "nonpayable",
            "type": "constructor"
        },
        {
            "anonymous": false,
            "inputs": [
                {
                    "indexed": false,
                    "internalType": "uint256",
                    "name": "proposalId",
                    "type": "uint256"
                }
            ],
            "name": "ProposalClosed",
            "type": "event"
        },
        {
            "anonymous": false,
            "inputs": [
                {
                    "indexed": false,
                    "internalType": "uint256",
                    "name": "proposalId",
                    "type": "uint256"
                },
                {
                    "indexed": false,
                    "internalType": "string",
                    "name": "title",
                    "type": "string"
                },
                {
                    "indexed": false,
                    "internalType": "string",
                    "name": "description",
                    "type": "string"
                },
                {
                    "indexed": false,
                    "internalType": "uint256",
                    "name": "createdAt",
                    "type": "uint256"
                }
            ],
            "name": "ProposalCreated",
            "type": "event"
        },
        {
            "anonymous": false,
            "inputs": [
                {
                    "indexed": false,
                    "internalType": "uint256",
                    "name": "proposalId",
                    "type": "uint256"
                },
                {
                    "indexed": false,
                    "internalType": "address",
                    "name": "voter",
                    "type": "address"
                },
                {
                    "indexed": false,
                    "internalType": "bool",
                    "name": "support",
                    "type": "bool"
                }
            ],
            "name": "VoteCasted",
            "type": "event"
        },
        {
            "inputs": [
                {
                    "internalType": "uint256",
                    "name": "proposalId",
                    "type": "uint256"
                }
            ],
            "name": "checkAndCloseProposal",
            "outputs": [],
            "stateMutability": "nonpayable",
            "type": "function"
        },
        {
            "inputs": [
                {
                    "internalType": "string",
                    "name": "title",
                    "type": "string"
                },
                {
                    "internalType": "string",
                    "name": "description",
                    "type": "string"
                }
            ],
            "name": "createProposal",
            "outputs": [],
            "stateMutability": "nonpayable",
            "type": "function"
        },
        {
            "inputs": [
                {
                    "internalType": "address",
                    "name": "forwarder",
                    "type": "address"
                }
            ],
            "name": "isTrustedForwarder",
            "outputs": [
                {
                    "internalType": "bool",
                    "name": "",
                    "type": "bool"
                }
            ],
            "stateMutability": "view",
            "type": "function"
        },
        {
            "inputs": [],
            "name": "proposalCount",
            "outputs": [
                {
                    "internalType": "uint256",
                    "name": "",
                    "type": "uint256"
                }
            ],
            "stateMutability": "view",
            "type": "function"
        },
        {
            "inputs": [
                {
                    "internalType": "uint256",
                    "name": "",
                    "type": "uint256"
                }
            ],
            "name": "proposals",
            "outputs": [
                {
                    "internalType": "uint256",
                    "name": "id",
                    "type": "uint256"
                },
                {
                    "internalType": "string",
                    "name": "title",
                    "type": "string"
                },
                {
                    "internalType": "string",
                    "name": "description",
                    "type": "string"
                },
                {
                    "internalType": "uint256",
                    "name": "createdAt",
                    "type": "uint256"
                },
                {
                    "internalType": "uint256",
                    "name": "votesFor",
                    "type": "uint256"
                },
                {
                    "internalType": "uint256",
                    "name": "votesAgainst",
                    "type": "uint256"
                },
                {
                    "internalType": "bool",
                    "name": "closed",
                    "type": "bool"
                }
            ],
            "stateMutability": "view",
            "type": "function"
        },
        {
            "inputs": [
                {
                    "internalType": "uint256",
                    "name": "proposalId",
                    "type": "uint256"
                },
                {
                    "internalType": "bool",
                    "name": "support",
                    "type": "bool"
                }
            ],
            "name": "voteOnProposal",
            "outputs": [],
            "stateMutability": "nonpayable",
            "type": "function"
        },
        {
            "inputs": [
                {
                    "internalType": "address",
                    "name": "",
                    "type": "address"
                },
                {
                    "internalType": "uint256",
                    "name": "",
                    "type": "uint256"
                }
            ],
            "name": "votes",
            "outputs": [
                {
                    "internalType": "bool",
                    "name": "",
                    "type": "bool"
                }
            ],
            "stateMutability": "view",
            "type": "function"
        }
    ],
    "bytecode": "0x60a06040523480156200001157600080fd5b50604051620014e2380380620014e28339818101604052810190620000379190620000de565b808073ffffffffffffffffffffffffffffffffffffffff1660808173ffffffffffffffffffffffffffffffffffffffff1681525050505062000110565b600080fd5b600073ffffffffffffffffffffffffffffffffffffffff82169050919050565b6000620000a68262000079565b9050919050565b620000b88162000099565b8114620000c457600080fd5b50565b600081519050620000d881620000ad565b92915050565b600060208284031215620000f757620000f662000074565b5b60006200010784828501620000c7565b91505092915050565b6080516113b66200012c600039600061051001526113b66000f3fe608060405234801561001057600080fd5b506004361061007d5760003560e01c806365e481e21161005b57806365e481e2146101045780639f2524ee14610120578063bd4aba9214610150578063da35c6641461016c5761007d565b8063013cf08b146100825780631614665c146100b8578063572b6c05146100d4575b600080fd5b61009c6004803603810190610097919061091c565b61018a565b6040516100af9796959493929190610a03565b60405180910390f35b6100d260048036038101906100cd9190610aac565b6102e9565b005b6100ee60048036038101906100e99190610b4a565b61050c565b6040516100fb9190610b77565b60405180910390f35b61011e60048036038101906101199190610bf7565b610564565b005b61013a60048036038101906101359190610c78565b610711565b6040516101479190610b77565b60405180910390f35b61016a6004803603810190610165919061091c565b610740565b005b6101746108ab565b6040516101819190610cb8565b60405180910390f35b60016020528060005260406000206000915090508060000154908060010180546101b390610d02565b80601f01602080910402602001604051908101604052809291908181526020018280546101df90610d02565b801561022c5780601f106102015761010080835404028352916020019161022c565b820191906000526020600020905b81548152906001019060200180831161020f57829003601f168201915b50505050509080600201805461024190610d02565b80601f016020809104026020016040519081016040528092919081815260200182805461026d90610d02565b80156102ba5780601f1061028f576101008083540402835291602001916102ba565b820191906000526020600020905b81548152906001019060200180831161029d57829003601f168201915b5050505050908060030154908060040154908060050154908060060160009054906101000a900460ff16905087565b6001600083815260200190815260200160002060060160009054906101000a900460ff161561034d576040517f08c379a000000000000000000000000000000000000000000000000000000000815260040161034490610d7f565b60405180910390fd5b600260006103596108b1565b73ffffffffffffffffffffffffffffffffffffffff1673ffffffffffffffffffffffffffffffffffffffff168152602001908152602001600020600083815260200190815260200160002060009054906101000a900460ff16156103f2576040517f08c379a00000000000000000000000000000000000000000000000000000000081526004016103e990610deb565b60405180910390fd5b6001600260006104006108b1565b73ffffffffffffffffffffffffffffffffffffffff1673ffffffffffffffffffffffffffffffffffffffff168152602001908152602001600020600084815260200190815260200160002060006101000a81548160ff02191690831515021790555080156104995760016000838152602001908152602001600020600401600081548092919061048f90610e3a565b91905055506104c6565b6001600083815260200190815260200160002060050160008154809291906104c090610e3a565b91905055505b7f5aaa9aad7433112662b9e5ae23b96ed62b00035f413ab908c55607284e0804e2826104f06108b1565b8360405161050093929190610e91565b60405180910390a15050565b60007f000000000000000000000000000000000000000000000000000000000000000073ffffffffffffffffffffffffffffffffffffffff168273ffffffffffffffffffffffffffffffffffffffff16149050919050565b6040518060e00160405280600054815260200185858080601f016020809104026020016040519081016040528093929190818152602001838380828437600081840152601f19601f82011690508083019250505050505050815260200183838080601f016020809104026020016040519081016040528093929190818152602001838380828437600081840152601f19601f820116905080830192505050505050508152602001428152602001600081526020016000815260200160001515815250600160008054815260200190815260200160002060008201518160000155602082015181600101908161065991906110a3565b50604082015181600201908161066f91906110a3565b50606082015181600301556080820151816004015560a0820151816005015560c08201518160060160006101000a81548160ff0219169083151502179055509050507f3f86606f711a448daf3ec6c75d04db9515b24b20b64a68406f971eb5a4e1618760005485858585426040516106ec969594939291906111b1565b60405180910390a160008081548092919061070690610e3a565b919050555050505050565b60026020528160005260406000206020528060005260406000206000915091509054906101000a900460ff1681565b60006001600083815260200190815260200160002090508060060160009054906101000a900460ff16156107a9576040517f08c379a00000000000000000000000000000000000000000000000000000000081526004016107a090611254565b60405180910390fd5b61012c81600301546107bb9190611274565b42116107fc576040517f08c379a00000000000000000000000000000000000000000000000000000000081526004016107f3906112f4565b60405180910390fd5b60008160040154148015610814575060008160050154145b610853576040517f08c379a000000000000000000000000000000000000000000000000000000000815260040161084a90611360565b60405180910390fd5b60018160060160006101000a81548160ff0219169083151502179055507f887777ccf43690541bed9e00b10d0fccfa7520b11875f09847a57b3085d8ab928260405161089f9190610cb8565b60405180910390a15050565b60005481565b60006108bc3361050c565b156108d057601436033560601c90506108d8565b3390506108d9565b5b90565b600080fd5b600080fd5b6000819050919050565b6108f9816108e6565b811461090457600080fd5b50565b600081359050610916816108f0565b92915050565b600060208284031215610932576109316108dc565b5b600061094084828501610907565b91505092915050565b610952816108e6565b82525050565b600081519050919050565b600082825260208201905092915050565b60005b83811015610992578082015181840152602081019050610977565b60008484015250505050565b6000601f19601f8301169050919050565b60006109ba82610958565b6109c48185610963565b93506109d4818560208601610974565b6109dd8161099e565b840191505092915050565b60008115159050919050565b6109fd816109e8565b82525050565b600060e082019050610a18600083018a610949565b8181036020830152610a2a81896109af565b90508181036040830152610a3e81886109af565b9050610a4d6060830187610949565b610a5a6080830186610949565b610a6760a0830185610949565b610a7460c08301846109f4565b98975050505050505050565b610a89816109e8565b8114610a9457600080fd5b50565b600081359050610aa681610a80565b92915050565b60008060408385031215610ac357610ac26108dc565b5b6000610ad185828601610907565b9250506020610ae285828601610a97565b9150509250929050565b600073ffffffffffffffffffffffffffffffffffffffff82169050919050565b6000610b1782610aec565b9050919050565b610b2781610b0c565b8114610b3257600080fd5b50565b600081359050610b4481610b1e565b92915050565b600060208284031215610b6057610b5f6108dc565b5b6000610b6e84828501610b35565b91505092915050565b6000602082019050610b8c60008301846109f4565b92915050565b600080fd5b600080fd5b600080fd5b60008083601f840112610bb757610bb6610b92565b5b8235905067ffffffffffffffff811115610bd457610bd3610b97565b5b602083019150836001820283011115610bf057610bef610b9c565b5b9250929050565b60008060008060408587031215610c1157610c106108dc565b5b600085013567ffffffffffffffff811115610c2f57610c2e6108e1565b5b610c3b87828801610ba1565b9450945050602085013567ffffffffffffffff811115610c5e57610c5d6108e1565b5b610c6a87828801610ba1565b925092505092959194509250565b60008060408385031215610c8f57610c8e6108dc565b5b6000610c9d85828601610b35565b9250506020610cae85828601610907565b9150509250929050565b6000602082019050610ccd6000830184610949565b92915050565b7f4e487b7100000000000000000000000000000000000000000000000000000000600052602260045260246000fd5b60006002820490506001821680610d1a57607f821691505b602082108103610d2d57610d2c610cd3565b5b50919050565b7f50726f706f73616c20697320636c6f7365640000000000000000000000000000600082015250565b6000610d69601283610963565b9150610d7482610d33565b602082019050919050565b60006020820190508181036000830152610d9881610d5c565b9050919050565b7f416c726561647920766f74656400000000000000000000000000000000000000600082015250565b6000610dd5600d83610963565b9150610de082610d9f565b602082019050919050565b60006020820190508181036000830152610e0481610dc8565b9050919050565b7f4e487b7100000000000000000000000000000000000000000000000000000000600052601160045260246000fd5b6000610e45826108e6565b91507fffffffffffffffffffffffffffffffffffffffffffffffffffffffffffffffff8203610e7757610e76610e0b565b5b600182019050919050565b610e8b81610b0c565b82525050565b6000606082019050610ea66000830186610949565b610eb36020830185610e82565b610ec060408301846109f4565b949350505050565b7f4e487b7100000000000000000000000000000000000000000000000000000000600052604160045260246000fd5b60008190508160005260206000209050919050565b60006020601f8301049050919050565b600082821b905092915050565b600060088302610f597fffffffffffffffffffffffffffffffffffffffffffffffffffffffffffffffff82610f1c565b610f638683610f1c565b95508019841693508086168417925050509392505050565b6000819050919050565b6000610fa0610f9b610f96846108e6565b610f7b565b6108e6565b9050919050565b6000819050919050565b610fba83610f85565b610fce610fc682610fa7565b848454610f29565b825550505050565b600090565b610fe3610fd6565b610fee818484610fb1565b505050565b5b8181101561101257611007600082610fdb565b600181019050610ff4565b5050565b601f8211156110575761102881610ef7565b61103184610f0c565b81016020851015611040578190505b61105461104c85610f0c565b830182610ff3565b50505b505050565b600082821c905092915050565b600061107a6000198460080261105c565b1980831691505092915050565b60006110938383611069565b9150826002028217905092915050565b6110ac82610958565b67ffffffffffffffff8111156110c5576110c4610ec8565b5b6110cf8254610d02565b6110da828285611016565b600060209050601f83116001811461110d57600084156110fb578287015190505b6111058582611087565b86555061116d565b601f19841661111b86610ef7565b60005b828110156111435784890151825560018201915060208501945060208101905061111e565b86831015611160578489015161115c601f891682611069565b8355505b6001600288020188555050505b505050505050565b82818337600083830152505050565b60006111908385610963565b935061119d838584611175565b6111a68361099e565b840190509392505050565b60006080820190506111c66000830189610949565b81810360208301526111d9818789611184565b905081810360408301526111ee818587611184565b90506111fd6060830184610949565b979650505050505050565b7f50726f706f73616c20697320616c726561647920636c6f736564000000000000600082015250565b600061123e601a83610963565b915061124982611208565b602082019050919050565b6000602082019050818103600083015261126d81611231565b9050919050565b600061127f826108e6565b915061128a836108e6565b92508282019050808211156112a2576112a1610e0b565b5b92915050565b7f566f74696e6720706572696f64207374696c6c20616374697665000000000000600082015250565b60006112de601a83610963565b91506112e9826112a8565b602082019050919050565b6000602082019050818103600083015261130d816112d1565b9050919050565b7f50726f706f73616c2068617320766f7465730000000000000000000000000000600082015250565b600061134a601283610963565b915061135582611314565b602082019050919050565b600060208201905081810360008301526113798161133d565b905091905056fea26469706673582212203358ea258dc734bfd0c02a7d817d7dc5e5ed631ae9b86a73497b14f3c736be3764736f6c63430008180033",
    "linkReferences": {},
    "deployedLinkReferences": {}
}